:020000040800F2
:10000000E804002009010008B31C00085718000884
:10001000B11C00084B090008211E00080000000068
:10002000000000000000000000000000B71C0008F5
:100030004D09000800000000B51C0008B91C0008AC
:100040002301000823010008230100082301000800
:1000500023010008230100082301000823010008F0
:1000600023010008230100082301000823010008E0
:1000700023010008230100082301000823010008D0
:1000800023010008230100082301000823010008C0
:1000900023010008230100082301000823010008B0
:1000A00023010008230100082301000823010008A0
:1000B0002301000823010008230100082301000890
:1000C0002301000823010008230100082301000880
:1000D0002301000823010008230100082301000870
:1000E000230100082301000823010008DFF814D0D1
:1000F00000F0F8FB00F03CF80048004749290008F0
:10010000AFF30080E8040020064880470648004717
:10011000FEE7FEE7FEE7FEE7FEE7FEE7FEE7FEE7B7
:10012000FEE7FEE7BD1C0008ED000008202A04DB06
:10013000203A21FA02F00021704721FA02F3D04060
:10014000C2F120029140084319467047D2B201E043
:1001500000F8012B491EFBD270470022F6E710B5CC
:1001600013460A4604461946FFF7F0FF204610BD25
:1001700070B5054C054D03E0206820448047241DE0
:10018000AC42F9D170BD0000502C0008542C00087E
:10019000F0B480EA0102D40F4200B2EB410F02D268
:1001A0000246084611464A0042D0C30DDDB2C1F3F3
:1001B000C752AD1A202D35DAC1F3160141F4000201
:1001C00004B15242C5F1200602FA06F12A41104458
:1001D000B3EBD05F23D0C4B1012DA0EBC35009DC39
:1001E000F0BC4FF0004202EAC352DBB200F500005F
:1001F00000F0A6B9400000F1807000EBC350A0F100
:10020000807040EAD170490009E0490841EAC071B4
:10021000A0EBC35000F50000400800EBC350F0BC59
:1002200000F085B96142012202EB4101001BF6E7B3
:10023000F0BC704781F00041AAE780F00040A7E7DA
:1002400080EA010210B502F00043400022D04A00CB
:100250001FD0010E01EB1261C0F35600C2F356022B
:1002600040F4000042F40002A0FB022000047F39A9
:10027000140400D0401C50EA124001D44000491E32
:10028000C2B20C0604EBD010401C4008802A02D0F9
:1002900003E0002010BD20F00100002900DA00205A
:1002A000184310BD30B480EA010202F0004530F07E
:1002B000004221F0004013D090B1C30DD40DC2F321
:1002C0001601C0F31600E41A41F4000140F40002E4
:1002D0007D34914201D3641C00E04900002C02DA15
:1002E00030BC002070474FF400000023914201D33E
:1002F000891A034340084FEA4101F7D151B19142B5
:1003000002D14FF0004105E002D24FF0010101E0BF
:100310006FF0010103EBC450284430BC00F007B972
:100320002DE9FE4F81EA030404F0004421F000416E
:1003300000944FF0000B23F0004350EA01045ED01C
:1003400052EA03045BD0C3F30A54C1F30A552C44A8
:10035000A4F2F3340194A0FB0254C1F3130141F45D
:100360008011C3F3130343F4801301FB024400FB29
:10037000034E840A970A44EA815447EA8357A4FB50
:10038000076802958D0A05FB07854FEA932C04FB4D
:100390000C542705029D4FEA065847EA1637B5EB7D
:1003A00008056EEB070C870E920E47EA811742EAAA
:1003B0008312A7FB0201B6EB0B0164EB00042B0DCB
:1003C00043EA0C335E1844EB1C50DA465146E7FB17
:1003D0000201C5F313044FEA0B3343EA14534FEA07
:1003E0000432019C43EA0603A4F10C040294009C2D
:1003F000CDE900B400F0E1F803B0BDE8F08F0020D3
:100400000146F9E7C10F80EAE0700844CA07962365
:10041000002100F095B896230022114600F090B814
:100420000EB5C10F80EAE0700844CA07002140F20F
:1004300033438DE80E000A460B4600F0BEF803B0C9
:1004400000BD00F0004230F000400AD0C10D01F5BF
:100450006071C0F3160042EA0151C208400711431F
:10046000704700200146704701F0004330B421F08E
:10047000004150EA010206D00A0DA2F56072C1F3F4
:100480001301002A02DC30BC00207047440F44EA0C
:10049000C104C100E01830BC00EBC25000F047B806
:1004A00030B50B46014600202022012409E021FA44
:1004B00002F59D4205D303FA02F5491B04FA02F541
:1004C0002844151EA2F10102F1DC30BD2DE9F05FD8
:1004D0000546002092469B468846064681464024B3
:1004E0001BE02846414647462246FFF71FFE53467B
:1004F0005A46C01A914110D311461846224600F0C0
:1005000003FA2D1A67EB01084F462246012000210D
:1005100000F0FAF917EB00094E41201EA4F1010486
:10052000DFDC484631462A464346BDE8F09F0029B5
:10053000A8BF7047401C490008BF20F00100704769
:1005400010B4B0FA80FC00FA0CF050EA010404BFC9
:1005500010BC704749B1CCF1200421FA04F411FA1F
:100560000CF118BF012121430843A3EB0C01CB1D63
:100570004FEA00614FEA102042BF002010BC7047D4
:1005800000EBC35010440029A4BF10BC7047401CAE
:10059000490008BF20F0010010BC704710B5141EC0
:1005A00073F1000408DA401C41F1000192185B412C
:1005B0001A4301D120F0010010BD2DE9F04D924603
:1005C0009B4611B1B1FA81F202E0B0FA80F220321A
:1005D000904600F099F904460F4640EA0A0041EAC5
:1005E0000B0153465A46084313D0114653EA010003
:1005F00019D0C8F140025046FFF798FD05460E4657
:1006000050465946424600F07FF9084305D0012084
:1006100004E020463946BDE8F08D0020054346EA57
:10062000E0762C4337430A986305E40AA0EB080000
:100630000022FD0A44EA47540A3002D50020014650
:10064000E9E7010510196941DDE90845001969412B
:10065000BDE8F04DA2E72DE9FE4F804681EA030098
:10066000C00F0C46009021F0004123F00045B8EB8C
:100670000200A94105D24046214690461C460B4641
:10068000024623F00040104347D0270DC7F30A006D
:10069000C3F30A510290401A019040286BDAC3F369
:1006A000130040F4801B0098924620B10023D2EB47
:1006B000030A63EB0B0B01985946C0F14002504608
:1006C00000F022F906460D4650465946019A00F0C0
:1006D0002AF910EB08006141002487EA115284EAEC
:1006E000E7731A4340D0009A62B3019A012A4FEA95
:1006F000075215DC001B61EB02014FF0004202EAD9
:100700000752CDE90042001C41F5801132462B46CC
:10071000FFF753FF03B0BDE8F08F40462146F9E7ED
:10072000001B61EB0201001C41F5801300185B41C6
:100730002018A2F5001747EB030140EAD570B6195F
:100740006D4111E06D084FEA360645EAC0754FEA83
:100750000752001B61EB0201001C41F580114908A2
:100760004FEA30000019514132462B4603B0BDE834
:10077000F04FFFF713BF0098012240000023D0EB99
:10078000020263EBE073009821464FEAE074B8EB95
:10079000000061EB0401E9E783F000435BE781F0CF
:1007A000004158E72DE9F04D81EA030404F0004BC5
:1007B00021F0004514464FF0000A23F0004150EAB2
:1007C000050220D054EA01021DD0C5F30A570246A3
:1007D000C5F31303C1F31300C1F30A5640F48015A7
:1007E00043F48013A7EB0608101BD64608F2FD3829
:1007F00073EB050002D308F1010801E092185B4198
:10080000B8F1000F03DA00200146BDE8F08D0020AA
:100810004FF48011064684460EE0171B73EB050764
:1008200005D3121B63EB050306434CEA010C490890
:100830004FEA300092185B4150EA0107EDD152EACD
:10084000030012D082EA040083EA0501084305D0C0
:10085000101BAB4106D20122002306E000224FF01C
:10086000004302E06FF0010253101AEB06004CEB5C
:10087000085110EB0A0041EB0B01BDE8F04DFFF70A
:100880008DBEC1F30A52C1F3130140F2FF3341F4AC
:1008900080119A4202DA00200146704740F2334349
:1008A0009A42A2F2334202DC5242FFF73FBC00F010
:1008B0002BB8000030B5041E71F1000404DB4FF0CA
:1008C0000044404264EB0101141E73F1000405DB97
:1008D0001C464FF00043524263EB0403994208BFA9
:1008E000904230BD064C074D06E0E06840F0010341
:1008F00094E8070098471034AC42F6D3FFF7FAFBB0
:10090000302C0008502C0008202A04DB203A00FA82
:1009100002F1002070479140C2F1200320FA03F356
:10092000194390407047202A06DBCB17203A41FA42
:1009300002F043EAE07306E041FA02F3D040C2F16C
:1009400020029140084319467047FEE77047704700
:1009500070B5044600F0FEF80546601C02D004485D
:100960000078044400F0F6F8401BA042FAD370BDB2
:10097000000000202DE9F84FDFF8B891002409F1BC
:10098000040A0AF1040B23460F270BF1040EC9E0F9
:100990000125A5402A40AA427DD1674ED1F804C066
:1009A000ACEB0608B44532D014DCBCF1030F3AD0EE
:1009B00009DCBCF1000F2AD0BCF1010F1CD0BCF146
:1009C000020F31D11DE0BCF1110F17D0BCF1120F95
:1009D0002AD119E0B8F5881F19D006DCB8F5803F98
:1009E00015D0B8F5801F1FD111E0B8F5001F0ED04B
:1009F000B8F5041F18D10AE0CB6815E0CB681B1DC1
:100A000012E0CB6808330FE0CB680C330CE08B6846
:100A10002BB1012B4FF0080303D0456104E0042300
:100A200002E0056100E00023FF2A01D8064601E04C
:100A300000F104064FEA840501D9A5F12005D6F896
:100A4000008007FA05FC28EA0C0803FA05F548EAD5
:100A50000508C6F800804D68ED0062D5374DAE69D7
:100A600046F00106AE61AD6924F0030605F001050C
:100A70000095334D06EB050CDCF80850A607360F41
:100A800007FA06F825EA0805DFF8B880404503D1E3
:100A90004FF0000817E044E0DFF8AC80404502D199
:100AA0004FF001080FE0DFF8A480404502D14FF07D
:100AB000020808E0DFF89880404502D14FF00308B3
:100AC00001E04FF0040808FA06F848EA0508CCF8F7
:100AD00008804D68D9F80060ED034D4601D51643F6
:100AE00000E096432E604D68DAF80060AD0355468D
:100AF00001D5164300E096432E604D68DBF8006098
:100B0000ED025D4601D5164300E096432E604D6828
:100B1000DEF80060AD02754601D5164300E096434D
:100B20002E60641C0D682A46E5407FF431AFBDE8B5
:100B3000F88F000000040140000011100010024076
:100B40000000014000080140000C0140001001407D
:100B50000014014001488068704700000000002038
:100B600070B504001BD094F83D00002520B984F82E
:100B70003C50204600F056FA242084F83D002068BE
:100B8000016821F00101016000F0A4FB4D4A616899
:100B9000914201D84C4900E04C49884201D20120E1
:100BA00070BD4B492368B0FBF1F15E6826F03F064B
:100BB0000E435E606368934206D94FF496735943BF
:100BC0004FF47A73B1FBF3F12368491C1E6A26F0D7
:100BD0003F06314319626168914210D84900401EB6
:100BE000B0FBF1F2521CC2F30B02042A01D2042022
:100BF00022E0B0FBF1F0401CC0F30B001CE0A36846
:100C0000F3B301EBC10202EB0116421EB2FBF6F296
:100C1000521C42F48042120549D093B301EBC10249
:100C200002EB0111401EB0FBF1F0401CC0F30B00C1
:100C300040F4804040F400402168CA694CF6FF73DC
:100C40009A431043C861D4E90701084321680A6840
:100C500022F0C00210430860D4E903010143206878
:100C6000826848F2FF339A4311438160D4E9050159
:100C700008432168CA6822F0FF021043C86001E0FF
:100C80000EE016E02068016841F001010160256472
:100C9000202084F83D00256384F83E50002070BD7C
:100CA00001EB4106421EB2FBF6F2521CB3E70120F3
:100CB000C2E701EB4101401EB0FBF1F0401CC0F364
:100CC0000B00B7E7A086010080841E0000093D00EC
:100CD00040420F002DE9FF4F83B09A46DDE911979E
:100CE00093460446DDF84080FFF734FF054694F84C
:100CF0003D0020286FD1192301227B492046009511
:100D000000F0A4FE0028F5D194F83C00012862D040
:100D1000012084F83C0020680168C90703D10168FC
:100D200041F0010101602168086820F4006008605A
:100D3000222084F83D00402084F83E0000262664EE
:100D4000C4F82480A4F82A90608D20856748E0626A
:100D5000CDE9007553465A462046049900F093FDAC
:100D600000287DD1208DDFF8888168B1012814D05A
:100D7000022820D02068016841F480610160206869
:100D8000416980690090A0E0206841698169009113
:100D9000016841F40071016097E02068016821F466
:100DA0008061016072B620684169816900910168C3
:100DB00041F400710CE02168086840F400600860AC
:100DC00072B62068416981690091016821F48061EF
:100DD000016062B679E084E003284FD801280BD087
:100DE00002283B464FF000024146204600950ED0B7
:100DF00000F02CFEA0BB0FE02A463946204600F04A
:100E0000A4FE68BB20680069616A087054E000F0C5
:100E10001DFE28BB72B61AE02068016821F48061CB
:100E2000016072B620680069616A0870606A401CDF
:100E30006062208D401E2085608D401E60853B468F
:100E4000002241462046009500F000FE40B920688F
:100E5000016841F40071016020680069616A00E086
:100E600012E00870606A401C6062218D491E218575
:100E7000618D491E618562B621681BE02A463946AC
:100E8000204600F062FE18B1012007B0BDE8F08FE7
:100E900020680069616A0870606A401C6062218D88
:100EA000491E2185618D491E618521684A69D243A9
:100EB00052070AD409690170606A401C6062208D83
:100EC000401E2085608D401E6085208D002883D1C6
:100ED000202084F83D0084F83E6084F83C600020C7
:100EE000D3E70220D1E70000020010000000FFFF5E
:100EF000040001002DE9FF4F83B09A46DDE9119708
:100F000093460446DDF84080FFF724FE054694F83A
:100F10003D0020287FD11923012240492046009519
:100F200000F094FD002876D194F83C00012872D09E
:100F3000012084F83C0020680168C90703D10168DA
:100F400041F0010101602068016821F40061016045
:100F5000212084F83D00402084F83E0000262664CD
:100F6000C4F82480A4F82A90608D20852C48E06283
:100F7000CDE9007553465A462046049900F0F6FC28
:100F800070B930E02A463946204600F011FE58B1CB
:100F9000206C042804D12068016841F400710160CC
:100FA000012007B0BDE8F08F606A21680078086111
:100FB000606A401C6062218D491E89B22185628D64
:100FC000521E628522685369DB435B070BD469B10B
:100FD00000781061606A401C6062208D401E208590
:100FE000608D401E6085208D0028CBD12A46394671
:100FF000204600F005FD0028CAD154F83D0B0168D9
:1010000041F400710160202004F81E09E67766773C
:101010000020C6E7FFE70220C3E70000020010003F
:101020000000FFFF10B586B00021009101910291F0
:10103000039100681349884222D1134CA06940F003
:101040000800A061A069694600F0080004904FF410
:101050004070009012200190032003900B48FFF78E
:1010600089FC0B48416841F0E06141F002014160B8
:10107000E06940F40010E061E06900F400100490C1
:1010800006B010BD0054004000100240000C0140AA
:101090000000014002488168027811448160704775
:1010A00000000020074810B5016841F01001016000
:1010B000032000F067F8002000F006F800F024F8A4
:1010C000002010BD0020024070B50D4D04464FF4C5
:1010D0007A712878B1FBF0F00A490968B1FBF0F0A9
:1010E00000F0DEFA48B9102C07D200222146501E2B
:1010F00000F028F800206C6070BD012070BD000079
:10110000000000200C0000200C4808B5816941F067
:1011100001018161816901F001010091C16941F022
:101120008051C161C06900F080500090044841685E
:1011300021F0E06141F00071416008BD0010024003
:1011400000000140F0B40E4B1B680C46C3F30223B1
:10115000C3F10705042D00D90425191D072901D263
:10116000002300E0DB1E012606FA05F1491E21409E
:1011700099409E40761E16403143F0BC00F05ABFA5
:101180000CED00E0064900F0070208684FF6FF0387
:10119000184040EA0220034A1043086070470000EC
:1011A0000CED00E00000FA052DE9F0470F460500C0
:1011B00061D0434E306800F00700B84209D2306871
:1011C00020F0070038433060306800F00700B84274
:1011D00051D128683B4C810712D5400703D5606880
:1011E00040F4E06060602878000703D5606840F450
:1011F000605060606068A96820F0F000084360609B
:101200002878C00728D06868012810D021680228F3
:1012100010D0890700292EDA616821F0030101430B
:101220006160FFF797FC804641F288390DE0216844
:101230008903EFE78901EDE7FFF78CFCA0EB0801DC
:10124000494502D90320BDE8F0876068696800F06D
:101250000C00B0EB810FEFD1306800F00700B8420E
:101260000BD9306820F0070038433060306800F058
:101270000700B84201D00120E5E72878400705D5EE
:101280006068E96820F4E06008436060287800073F
:1012900006D56068296920F4605040EAC1006060AA
:1012A00000F038F86168084AC1F30311515CC84086
:1012B0000649086006480068FFF706FF0020C2E7FD
:1012C0000020024000100240B02B00080C0000205B
:1012D000040000200448054900684968044AC1F335
:1012E0000221515CC84070470C00002000100240F1
:1012F000C02B00080448054900684968044AC1F346
:10130000C221515CC84070470C0000200010024010
:10131000C02B000812A185B00FC98DE80F0014A0E2
:10132000144A006804905168134801F00C03042B20
:1013300010D0082B0ED1C1F38343C9031DF803005D
:101340000AD5516804AAC1F34041515C0A4A50438E
:10135000B0FBF1F005B0704708494843FAE70000D8
:1013600002030405060708090A0B0C0D0E0F1010E6
:10137000010200000010024000127A0000093D0046
:101380002DE9F84F040070D02078C04DC00749D037
:101390006868C0F38100012807D06868C0F3810045
:1013A000022809D16868C00306D52868800339D5AA
:1013B00060680028E7D035E06068B0F5803F0BD06A
:1013C00010B1B0F5A02F11D0286820F4803028602B
:1013D000286820F4802002E0286840F480302860EB
:1013E000606890B1FFF7B6FB06460AE0286840F453
:1013F00080202860F0E700BFFFF7ACFB801B64286B
:1014000073D828688003F7D50CE0FFF7A3FB0646E6
:1014100005E000BFFFF79EFB801B6428F0D828681A
:101420008003F7D420789A4E80074FF001094FF0DF
:10143000000839D5686810F00C0F07D06868C0F351
:101440008100022809D16868C00306D42868800793
:1014500014D52069012808D110E02069B0B1C6F880
:101460000090FFF777FB074605E00AE1FFF772FB04
:10147000C01B0228C4D828688007F7D5286861698E
:1014800020F0F80040EAC10028600DE0C6F80080B6
:10149000FFF760FB074604E0FFF75CFBC01B022878
:1014A00023D828688007F7D4207800072CD57948FE
:1014B000A169D9B1C0F80090FFF74CFB074604E0E2
:1014C000FFF748FBC01B02280FD8686A8007F7D5D2
:1014D00071484FF4FA510068B0FBF1F0009000BF82
:1014E0000098411E0091FAD20EE080E0C0F8008022
:1014F000FFF730FB074604E0FFF72CFBC01B022878
:1015000075D8686A8007F7D42078400760D5E86905
:101510000027C00008D4E86940F08050E861E8691D
:10152000012700F0805000905C480168C90513D481
:101530000168834641F480710160FFF70BFB82462E
:1015400006E000BFFFF706FBA0EB0A0064284ED8B8
:10155000DBF80000C005F5D5E06801280AD008B125
:10156000052813D0286A20F001002862286A20F09C
:10157000040002E0286A40F001002862E06841F2BD
:10158000883B98B1FFF7E6FA82460BE0286A40F004
:1015900004002862EEE700BFFFF7DCFAA0EB0A01C7
:1015A00059455AD8286A8007F6D50CE0FFF7D2FAD9
:1015B000824605E0FFF7CEFAA0EB0A0159454CD868
:1015C000286A8007F6D41FB1E86920F08050E861EE
:1015D000E06988B36968C1F38101022944D0022817
:1015E000C6F8608004D0FFF7B5FA044638E034E06E
:1015F000FFF7B0FA074604E0FFF7ACFAC01B022879
:101600002BD828688001F7D4206AB0F5803F05D137
:101610006868A16820F4003008436860D4E90801D4
:101620000843696821F4741108436860C6F8609043
:10163000FFF790FA044606E025E000BFFFF78AFABC
:10164000001B022809D828688001F7D51BE000BFDD
:10165000FFF780FA001B022802D90320BDE8F88FAB
:1016600028688001F4D40EE00128F7D06868226A67
:1016700000F48031914204D1616A00F47010884214
:1016800001D00120EAE70020E8E700000010024056
:1016900000004242800442420C00002000700040E2
:1016A00010B5401EB0F1807F01D3012010BD4FF076
:1016B000E02460610F21601700F0BCFC0020A061F5
:1016C00007202061002010BD70B5040004D094F8FC
:1016D0003900002510B106E0012070BD84F83850B3
:1016E000204600F023F8242084F839002068C168DF
:1016F00021F40051C160204600F004FB206801691C
:1017000021F4904101612068416921F02A01416181
:101710002068C16841F40051C160E563202084F86D
:10172000390084F83A00002070BD000030B585B063
:1017300000240094019402940394006814498842A0
:1017400023D11448C16941F40031C161C16901F478
:1017500000310491816941F00401816180690E4D7D
:1017600000F0040004900420009002200190032067
:10177000039069462846FFF7FDF80820CDE90004EC
:10178000694628460294FFF7F5F805B030BD000021
:101790000044004000100240000801402DE9F843D9
:1017A000044690F839001F4616460D46202850D1B1
:1017B000A5B19EB194F8380001284AD0012084F8E0
:1017C00038004FF00008C4F83C80212084F839002C
:1017D000FFF7C0F9A6848146E68426E00120BDE833
:1017E000F883E08C401EE084A0684B46B0F5805F33
:1017F0004FF000024FF080012046009703D000F028
:10180000DDFAE8B90DE000F0D9FAC8B928882168F6
:10181000C0F308004860206908B16D1C05E0AD1CEC
:1018200003E0216815F8010B4860E08C0028D8D14E
:101830004B46002240212046009700F0BFFA08B135
:101840000320CCE7202084F8390084F83880002079
:10185000C5E70220C3E7FEE701684A69D2435205A3
:101860000FD46FF480624A61002140F8301F2022BB
:1018700042738173026942F0040202610173012024
:101880007047002070472DE9F84F044600688946EC
:101890000B9D01689846174641F4806101602068FD
:1018A000016841F48071016000954FF0011A002237
:1018B000514620460A9B00F0C9F8002853D1216800
:1018C00009F0FE0008610AF1010B2B46594620463B
:1018D0000A9A00F0EFF8F0BB206841698069009037
:1018E0002A4620460A9900F063F940B1206C04288A
:1018F00039D12068016841F40071016033E0FEB223
:10190000B8F1010F09D02168380A08612A4620463B
:101910000A9900F04DF90028E8D1206806612A46AE
:1019200020460A9900F044F90028DFD120680168B8
:1019300041F48071016000950022514620460A9BC7
:1019400000F084F838B9216809F0FF0040F0010088
:1019500008612B4600E006E0594620460A9A00F04E
:10196000A9F8002800D00120BDE8F88F2DE9F84340
:10197000044600680D46DDE908970168984616465A
:1019800041F4807101604B4600224FF00111204666
:10199000009700F05BF8E0B9216805F0FE000861EF
:1019A0003B464A461549204600F084F888B920682D
:1019B0004169806900903A464946204600F0F8F8AF
:1019C00050B1206C042804D12068016841F40071F2
:1019D00001600120BDE8F883F5B2B8F1010F09D02C
:1019E0002168300A08613A464946204600F0E0F88E
:1019F0000028E6D1206805610020EBE70200010025
:101A000070B516460D4604460DE02046FFF724FF4C
:101A100008B1012070BD681C05D0FFF79BF8801B42
:101A2000A84207D835B120684069C0434007ECD4CC
:101A3000002070BD002044F8300F20216173A07396
:101A4000216941F0200121612073E2E72DE9F0478F
:101A50001E4690460D460446C1F30747DDF8209028
:101A600008E0701C06D0FFF775F8A0EB0900B04243
:101A70000FD876B12068012F18D0806925EA0000C0
:101A80000004000C14D000214145EAD00020BDE83C
:101A9000F087002044F8300F20216173A073216982
:101AA00041F02001216120730120F0E74069E5E762
:101AB0000121E9E72DE9F0479A4691460E46044692
:101AC00000254FF02008C1F3074725E02068406952
:101AD000C043400514D42068016841F400710160DE
:101AE00021686FF480604861256384F83D8084F844
:101AF0003E50206C40F00400206484F83C501FE00D
:101B0000B9F1FF3F08D0FFF725F8A0EB0A014945DE
:101B10000CD8B9F1000F09D02068012F13D08069CB
:101B200026EA00000004000C0BD0CFE744F8305F39
:101B300084F80D80A573206940F020002061257392
:101B40000120BDE8F0874069EAE72DE9F041002572
:101B500090460E460446202717E04069C043C00661
:101B60000CD454F8301B6FF01000486144F8105941
:101B70006777A577206A2062257717E0FEF7EAFFEE
:101B8000A0EB0800B04208D83EB120684169C943C3
:101B90004906E2D40020BDE8F08144F8305F677365
:101BA000A573206940F02000206125730120F2E731
:101BB00070B516460D4604460DE02046FFF74CFE74
:101BC00008B1012070BD681C05D0FEF7C3FF801B63
:101BD000A84207D835B120684069C0430006ECD45C
:101BE000002070BD002044F8300F20216173A073E5
:101BF000216941F0200121612073E2E70D4808B519
:101C0000816941F020018161816901F02001009129
:101C1000816941F004018161816901F00401009151
:101C2000816941F008018161806900F0080000903D
:101C300008BD0000001002400D4810B50B490160BE
:101C40000C49416000214FF480428160C0E90312D9
:101C500041618161C1610162FEF782FF002803D00A
:101C6000BDE81040FEF773BE10BD000000540040F8
:101C700014000020A08601000C4810B50A4901603C
:101C80004FF4E1314160002181600C22C160C0E964
:101C900004128161C161FFF717FD002803D0BDE880
:101CA0001040FEF754BE10BD004400406800002004
:101CB000FEE7704770477047FFF7ECB90D480168C1
:101CC00041F00101016041680B4A11404160016827
:101CD0000A4A11400160016821F4802101604168D5
:101CE00021F4FE0141604FF41F0181600449C003EB
:101CF00008607047001002400000FFF8FFFFF6FE8A
:101D000008ED00E02DE9F041044600680169E26851
:101D100021F44051114301612169A06808436169C0
:101D200008432168CA6841F20C639A430243CA60BF
:101D300020684169A26921F44071114341611E4943
:101D4000206864253226884202D1FFF7D3FA01E0E9
:101D5000FFF7C0FA00EBC00101EB001160686FF003
:101D600018078000B1FBF0F2B2FBF5F2B1FBF0F323
:101D70007A4303EB8202B1FBF0F306EB0212B2FBF3
:101D8000F5F2B3FBF5F302F0F00202EB0312B1FB44
:101D9000F0F3B1FBF0F0B0FBF5F0784303EB80001B
:101DA00006EB0010B0FBF5F0216800F00F001044C6
:101DB0008860BDE8F0810000003801402DE9F04165
:101DC000984617460E460446069D1DE0681C1BD02B
:101DD0002DB1FEF7BFFEA0EB0800A84214D9206881
:101DE000C16821F4D071C1602068416921F001010E
:101DF0004161202084F8390084F83A00002084F8FA
:101E000038000320BDE8F0812068006836EA000051
:101E100004D00020B842D9D00020F3E70120F9E730
:101E2000FEE730B58FB028216846FEF796F91421F9
:101E30000AA8FEF792F901210804CDE90010002458
:101E4000029402250491CDE907504FF4E010099067
:101E50006846FFF795FA0F20CDE90A056802CDE93B
:101E60000C4002210AA80E94FFF79EF90FB030BD76
:101E700010B5044600F007F8FEF7C4FAE168BDE8C3
:101E80001040FEF7DDB938B504468088052182B2DE
:101E9000204600F06BF86A460321204600F038F82F
:101EA000BDF8000000B238BD70B5054600F00CF872
:101EB000FEF7A8FA0446A868FEF7ADFA01462046E8
:101EC000BDE87040FEF7EEB938B5044680880521BC
:101ED00082B2204600F04AF86A460421204600F00B
:101EE00017F8BDF8000000B238BD000010B500F0D2
:101EF00033F8FEF795FA044A044BFEF711FABDE8F1
:101F00001040FEF7B1BA0000FCA9F1D24D62503F7B
:101F10002DE9FF470A2691468A46044603AD02276B
:101F20004FF00108CDE9005702962178012308EB14
:101F3000410152460748FEF7CDFE0028F2D10120AC
:101F4000FEF706FDBDF80C0040BAA9F80000BDE898
:101F5000FF8700001400002008B56A460221FFF741
:101F6000D7FFBDF80000C008800008BD2DE9FF4183
:101F70000446100A8DF80C000A2688468DF80D20BC
:101F800003AD0227CDE900570296207801234100D6
:101F900042460348FEF7AEFF0028F3D1BDE8FF81BB
:101FA0001400002010B500F00FF8FEF739FA044ACB
:101FB000044BFEF7B5F9BDE81040FEF755BA000036
:101FC0007B14AE47E17A843F08B56A460121FFF7EA
:101FD0009FFFBDF8000000B208BD10B504464FF4E5
:101FE00080520A20C4E901204007E0600521204614
:101FF000FFF7BCFF2046BDE8104043F6EF1200217A
:10200000FFF7B4BFFFF7E9BF017000218160C16035
:10201000704700000FB4054B10B503A9044A02989D
:1020200000F002F910BC5DF814FB00003129000833
:10203000100000200907090E002804DB00F1E02051
:1020400080F80014704700F00F0000F1E02080F8E5
:10205000141D704702E008C8121F08C1002AFAD1F7
:1020600070477047002001E001C1121F002AFBD118
:102070007047000010B540210948FFF7C5FF084828
:1020800041211030FFF7C0FF054842212030FFF703
:10209000BBFF03484321BDE810403030FFF7B4BF19
:1020A000A80000202DE9FF5F82B00021DDE90430A7
:1020B000020DDDF840B0034318D044F61050A2F2F0
:1020C000FF3242431514119801281FD0A5EB0B00D5
:1020D000401C5FEA000A4FF000064E4FDFF83891CF
:1020E000B046504615D5CAF1000413E011980124FA
:1020F0004AA3012801D16FEA0B010298119AC0E9A5
:102100000031C0E9024206B0BDE8F09FCBF100000B
:10211000DFE704460021404A491842EB0450CDE96C
:10212000001012E0E00707D032463B4640464946E1
:10213000FEF7F6F88046894632463B461046194679
:10214000FEF7EEF806460F466410002CEAD1DDE9F2
:102150000401DDE90023BAF1000F06DAFEF7E0F82A
:1021600042464B46FEF7DCF805E0FEF71BFB424615
:102170004B46FEF717FB04460E460022284BFEF79F
:1021800099FB03D84FF0FF30014607E00022254BB2
:1021900020463146FEF75FFAFEF773FB102409E094
:1021A000002C0ADB0A220023FEF790F9039B303251
:1021B0001A55641E50EA0102F2D1641C039AC4F15C
:1021C00011031444119A012A03D0012208430DD1AE
:1021D0000AE0084304D000204FF0110B119072E781
:1021E000A3EB0B056D1E0DE05B4504DD4FF0000217
:1021F00005F1010504E003DA4FF00002A5F1010545
:10220000002AECD002981199C0E90231C0E90045DA
:1022100079E70000000014400000F03F30000000AB
:102220000000F0430000E03F2DE9FF4F95B09A46D3
:10223000884606460025EEE1252877D1002427466A
:10224000F94A0121039400E0044316F8013F203BC2
:1022500001FA03F01042F7D130782A2811D06FF03C
:102260002F033078A0F13002092A16D8039A44F0DF
:10227000020402EB820203EB42021044761C03903C
:10228000EFE758F8042B0392002A03DA504244F493
:102290000054039044F00204761C30782E2816D1A6
:1022A00016F8010F44F004042A280DD06FF02F0215
:1022B0003078A0F13003092B09D807EB870302EB34
:1022C0004303C718761CF3E758F8047B761C307874
:1022D0006C280FD006DC4C2817D068280DD06A284F
:1022E00014D104E0742810D07A280FD10DE044F402
:1022F00000140AE044F4801401E044F440147278BD
:10230000824202D104F58014761C761C307866284F
:102310000BD013DC582877D009DC002875D045286D
:10232000F6D04628F4D047281AD193E118E0632864
:1023300035D0642879D0652812D18BE1702873D00C
:1023400008DC6728F1D069286FD06E280DD06F287F
:1023500006D1ACE073282CD0752874D0782853D0DF
:102360005246179990476D1C54E1C4F3025002285D
:1023700009D003280DD0D8F8001004280DD00D6026
:1023800008F1040846E1D8F80010EA17C1E9005244
:10239000F6E7D8F800100D80F2E70D70F0E718F8B6
:1023A000041B8DF8001000208DF80100EB46012081
:1023B00003E058F804BB4FF0FF3061074FF0000115
:1023C00002D40DE009F101018946B9420FDA8145D5
:1023D000F8DB1BF809100029F4D108E009F101012C
:1023E00089468142FADB1BF809100029F6D10398CF
:1023F0005346A0EB090721463846179A00F080FAA9
:10240000284400EB090507E044E008E10DE01BF873
:10241000010B524617999047B9F10109F7D253467B
:1024200021463846179AF2E039E00A21C4F30252F5
:102430004FF0000B0091022A06D058F8040BC11788
:10244000032A09D00AE023E008F1070020F0070280
:10245000F2E80201904605E000B2C117042A01D15A
:1024600040B2C117002906DA0A460021404261EB5A
:1024700002012D2202E0220504D52B228DF8042032
:10248000012203E0E20701D02022F7E7914657E05E
:102490000A2100E010214FF0000B00910BE0102109
:1024A0004FF0000B44F004040827009103E00820DB
:1024B0004FF0000B0090C4F30252022A05D058F8E6
:1024C000040B0021032A08D008E008F1070020F0DF
:1024D0000702F2E80201904603E080B2042A00D12C
:1024E000C0B24FF0000922072AD53278702A07D0EF
:1024F000DDF800C08CF0100C5CEA0B0C05D00EE08F
:1025000040228DF80420012208E050EA010306D0A1
:1025100030238DF804308DF8052002229146009B6F
:1025200083F0080353EA0B030AD150EA010201D1F8
:10253000620705D530228DF804204FF001097F1E77
:102540003278582A04D039A20C920CAA02920BE0DD
:102550003BA2F9E75B46009AFDF7B8FF0C9B9B5C3A
:10256000029A521E0292137050EA0102F2D10298AE
:1025700004A9081A00F1200B600702D524F4803466
:1025800000E001275F4502DDA7EB0B0000E0002023
:1025900000EB0B01009003984944401A0390E003BC
:1025A00006D453462146179A039800F0A9F905442A
:1025B000002706E001A85246C05D179990476D1CA0
:1025C0007F1C4F45F6DBE0030CD553462146179A96
:1025D000039800F095F9054404E03020524617991D
:1025E00090476D1C0099481E00900029F5DC08E01A
:1025F0000298029952460078491C02911799904717
:102600006D1CBBF10001ABF1010BF1DC5BE100F0F3
:1026100065F90544761C307800287FF40DAE19B0BA
:102620002846BDE8F08F0000092801003031323320
:1026300034353637383961626364656600000000FE
:1026400030313233343536373839414243444546E8
:1026500000000000600700D4062708F1070020F002
:102660000700F0E80223804603F0004C5FEA0C000C
:1026700001D097A009E0200501D596A005E0E0076C
:1026800001D095A001E0AFF24C001390307823F018
:10269000004365280CD006DC452809D046281DD00B
:1026A00047287FD13BE0662818D067287AD136E0EA
:1026B0000021112F01DB112000E0781CCDE9000181
:1026C00004A90CA8FFF7EEFCDDE90D010C9A4FF010
:1026D000000B07F10109109200914EE04FF000400D
:1026E0000097CDE9011004A90CA8FFF7DBFCDDE998
:1026F0000D020C9B0F994FF0000B91461093009226
:1027000011B9791C00EB0109B7EB090003D4C0F142
:10271000FF3B07F10109A9EB0700019042E0012FFF
:1027200000DA01270021112F01DD112000E03846D9
:10273000CDE9000104A90CA8FFF7B4FCDDE90D0107
:102740000C9A00914FF0000BB946109221070FD45C
:10275000009A4A4503DA914601E0A9F10109B9F16D
:10276000010F05DD109AA9F10101515C3029F4D067
:10277000B84202DA10F1040F03DA0121CDE90110A9
:1027800010E0002803DC8344A9EB000102E0411CB7
:10279000494500DD8946A0EB0B00401C01904FF03D
:1027A00000400290200705D40198484502DB4FF015
:1027B000FF30019000208DF84B0002980DF14B077F
:1027C000B0F1004F25D002200C902B200D900298E4
:1027D00000280CDA404202902D200D9007E00A21DB
:1027E0000298FDF75DFE3031029007F8011D0C994B
:1027F000481E0C900029F2DC02980028EFD1791EC7
:102800000D980870307800F0200040F0450007F87F
:10281000020D11A8C01BC01D02901398007800B1D2
:10282000012000EB0901019801EBE07102980144DD
:102830000398401A401E0390E00306D453462146F5
:10284000179A039800F05CF805441398007818B1C3
:102850005246179990476D1CE00323D553462146F5
:10286000179A039800F04CF805441BE0BBF1000FE9
:1028700007DB0098584504DD1098179910F80B00F5
:1028800001E0179930205246904701980BF1010B57
:10289000401E05F10105019004D12E2052461799E2
:1028A00090476D1CB9F10001A9F10109DEDC05E0DA
:1028B00017F8010B5246179990476D1C0299481E54
:1028C00002900029F4DC53462146179A03989EE6AD
:1028D0002D0000002B000000200000002DE9F04139
:1028E000044600251E461746880404D405E03946F0
:1028F0002020B0476D1C641EF9D52846BDE8F08144
:102900002DE9F041044600251E469046C80301D536
:10291000302700E02027880404D505E041463846EA
:10292000B0476D1C641EF9D52846BDE8F081000053
:1029300013B54FF6FF73012269460248FEF72EFFDA
:1029400000981CBD6800002094B0FEF7ABFBFFF7B9
:1029500068FAFFF753F9FFF78FF9FFF76DF98BA0CE
:10296000FFF758FB8E48FFF74DFB8D481030FFF7FF
:1029700049FB8B482030FFF745FB89483030FFF793
:1029800041FB8748FFF7B2FA01908548FFF70AFB41
:10299000844E3146FDF786FC82468148FFF768FA8F
:1029A0003146FDF77FFC04467D48FFF77DFA31464E
:1029B000FDF778FC05467A481030FFF797FA0D903E
:1029C00077481030FFF7EEFA3146FDF76BFC0C90BC
:1029D00073481030FFF74CFA3146FDF763FC139053
:1029E0006F481030FFF760FA3146FDF75BFC12903C
:1029F0006B482030FFF77AFA0B9069482030FFF7D8
:102A0000D1FA3146FDF74EFC0A9065482030FFF7B9
:102A10002FFA3146FDF746FC119061482030FFF750
:102A200043FA3146FDF73EFC10905D483030FFF729
:102A30005DFA09905A483030FFF7B4FA3146FDF795
:102A400031FC089056483030FFF712FA3146FDF756
:102A500029FC0F9052483030FFF726FA3146FDF737
:102A600021FC0E902846FDF7ECFC81460F462046DF
:102A7000FDF7E7FC064688460198FDF7E2FC0446B0
:102A80000D465046FDF7DDFC834600915146019806
:102A9000FDF77EFBFDF7D5FC024602A8079780E80C
:102AA0007003009B4048CDE900B30B46FFF7B2FA34
:102AB0001298FDF7C6FC82468B461398FDF7C1FCC1
:102AC000804689460D98FDF7BCFC06460F460C98DB
:102AD000FDF7B7FC04460D46DDE90C10FDF758FB89
:102AE000FDF7AFFC8DE8F00F02460B462E48FFF7CE
:102AF00091FA1098FDF7A5FC82468B461198FDF7D8
:102B0000A0FC804689460B98FDF79BFC06460F46C5
:102B10000A98FDF796FC04460D46DDE90A10FDF71C
:102B200037FBFDF78EFC8DE8F00F02460B461E4882
:102B3000FFF770FA0E98FDF784FC82468B460F98DB
:102B4000FDF77FFC804689460998FDF77AFC06462A
:102B50000F460898FDF775FC04460D46DDE90810A0
:102B6000FDF716FBFDF76DFC8DE8F00F02460B46F6
:102B70000D48FFF74FFA0DA0FFF74CFA0BA0FFF737
:102B800049FA4FF4FA70FDF7E3FEFAE6494E413296
:102B900031392054455354202121210D0A000000D1
:102BA000A800002000007A44C82B00080D0A00008D
:102BB00000000000000000000102030406070809ED
:102BC000000000000102030450535520566F6C743E
:102BD0006167653A25362E336656202020205368DB
:102BE000756E7420566F6C746167653A25392E36A0
:102BF0006656202020204C6F616420566F6C7461F3
:102C000067653A25362E33665620202020506F7790
:102C100065723A25392E366657202020204375727A
:102C200072656E743A25392E3666410D0A00000031
:102C3000542C00080000002014000000542000085C
:102C4000682C000814000020D40400006420000850
:102C500025F4FFFF0100000010000000000000004C
:082C60000024F4000000000054
:04000005080000ED02
:00000001FF
